:020000040800F2
:10000000000B0020550200088D2F0008112B00085E
:10001000892F0008D9040008E53900080000000015
:10002000000000000000000000000000952F000804
:10003000BD05000800000000912F0008992F00085E
:100040006F0200086F0200086F0200086F020008CC
:100050006F0200086F0200086F0200086F020008BC
:100060006F0200086F0200086F0200086F020008AC
:100070006F0200086F0200086F0200086F0200089C
:10008000810500088D0500086F0200086F02000856
:100090006F0200086F0200086F020008C105000827
:1000A0006F0200086F0200086F0200086F0200086C
:1000B0005D30000869300008753000086F020008E4
:1000C0006F0200086F0200086F0200086F0200084C
:1000D0006F020008ED350008F93500086F020008CE
:1000E0006F0200086F0200086F0200086F0200082C
:1000F0006F0200086F0200086F0200086F0200081C
:100100006F0200086F0200086F0200086F0200080B
:100110006F0200086F0200086F0200086F020008FB
:10012000990500086F020008A50500086F02000885
:100130006F02000800000000000000006F020008CD
:100140006F0200086F0200086F0200086F020008CB
:100150006F0200086F020008B10500086F02000876
:100160006F0200086F0200086F0200086F020008AB
:100170006F0200086F02000800000000000000008D
:100180006F0200086F02000800F002F800F052F859
:1001900014A696E8000CB244B344DA4501D100F04D
:1001A00049F8BAE80F000FA696E83000A5EB040561
:1001B00004EB0607AAEB0704A7F101074FEA1515A0
:1001C0004FEA3414A4F10104AC4201D300F032F838
:1001D00013F0010F18BFFB1A43F0010300F001F800
:1001E000DBE71847E8390000083A0000103A24BF5E
:1001F00078C878C1FAD8520724BF30C830C144BF8C
:1002000004680C6070470000704700000023002461
:1002100000250026103A28BF78C1FBD8520728BF16
:1002200030C148BF0B6070471FB503F0B1FC1FBD64
:1002300010B510BD00F0D0F81146FFF7F5FF03F040
:1002400045FC00F0EEF803B4FFF7F2FF03BC00F04A
:10025000F5F800000948804709480047FEE7FEE737
:10026000FEE7FEE7FEE7FEE7FEE7FEE7FEE7FEE766
:1002700004480549054A064B70470000493000080C
:100280008901000800050020000B00200007002065
:100290000007002053EA020C00F069802DE9F04BC2
:1002A0004FF00006002B1FBFB3FA83F503FA05F4E5
:1002B00024FA05F65E4012BF1643B2FA82F502FA3E
:1002C00005F4C5F120051EBF22FA05FC44EA0C0422
:1002D000203556EA044C4FEA144418BF641C4FF012
:1002E00000084FF00009904271EB030C39D300294C
:1002F00019BFB1FA81F701FA07F6B0FA80F700FAF0
:1003000007F6C7F120071EBF20FA07FC46EA0C06D5
:100310002037B6FBF4FCA7EB0507103F07F01F0BD7
:10032000CBF120062CFA06F60CFA0BFB44BFB346C1
:100330000026202FA4BF5E464FF0000B5BEA060CA0
:1003400008BF4FF0010B19EB0B0948EB0608ABFB9C
:10035000027C06FB02CC0BFB03CCC01B71EB0C0137
:10036000C1E70B46024641464846BDE8F08B13B54F
:10037000084318BF4FF0FF300146AFF30080BDE8DF
:100380001C4070474FF0000200B513469446964655
:10039000203922BFA0E80C50A0E80C50B1F1200198
:1003A000BFF4F7AF090728BFA0E80C5048BF0CC046
:1003B0005DF804EB890028BF40F8042B08BF7047A4
:1003C00048BF20F8022B11F0804F18BF00F8012B16
:1003D0007047704770477047754600F02BF8AE467F
:1003E00005006946534620F00700854618B020B541
:1003F000FFF73EFFBDE820404FF000064FF000073A
:100400004FF000084FF0000BAC46ACE8C009ACE878
:10041000C009ACE8C009ACE8C00921F007018D466D
:10042000704710B50446AFF300802046BDE8104089
:10043000FFF709BF0048704740000020014918201D
:10044000ABBEFEE726000200704700000146806B4D
:10045000036C026C13F0500F08D0D20648BF00F0B6
:100460006BB9806BC26C0846104700BF42F4007144
:10047000016401688A6812F0405F01D000F058B949
:10048000027E002AFAD1CA6A12F4700F02D08A687A
:100490005205F3D44A6822F020024A60016C21F42C
:1004A00080710164016CC90448BF00F041B9016C5E
:1004B00041F00101016400F03BB90000806B402174
:1004C0000164416C41F00401416400F035B9000061
:1004D000806B00F02FB90000FEE7000070B5012925
:1004E00048DB00224FF0310C00234FF0000E00BF1C
:1004F000825C013302F00104644204F0300482EAB9
:1005000052058CEA5406ED0708BF660886EA920495
:100510008CEA5605E40708BF750885EAD2048CEA20
:100520005506E40708BF6E0886EA12148CEA5605E1
:10053000E40708BF750885EA52148CEA5506E407FB
:1005400008BF6E0886EA92148CEA5605E40708BFD5
:10055000750805F001048CEA5506B4EBD21FDAB237
:1005600008BF6E088A428EEA060EC1D35FFA8EF08B
:1005700070BD00BF4FF0000E5FFA8EF070BD00003E
:1005800040F2D420C2F2000000F038BC40F2343017
:10059000C2F2000000F032BC40F2B410C2F200001F
:1005A00000F02CBC40F21420C2F2000000F026BC87
:1005B00040F27420C2F2000000F020BC704700003E
:1005C00080B5802000F026FE4FF40070BDE880402A
:1005D00000F020BE72B600BFFEE7000040F2CC0083
:1005E000C2F200000021C0F80210704770B581B05F
:1005F0000022009290F83C20012A03D1022001B091
:1006000070BD00BFD1F800E00122BEF10A0F1FFA51
:100610008EFC80F83C2009D34FEA4C02036812FAA2
:100620008EF2A2F11E0403F10C0204E003680EEB4B
:100630004E0403F1100207251668A54026EA0505B9
:1006400015608D68166805FA04F43443146049682F
:10065000062907D801EB81014A1F194651F8345F7A
:100660000FE000BF0C2901EB810105D8A1F12302A5
:10067000194651F8305F04E0A1F14102194651F8E2
:100680002C5F1F24944025EA04040C600CFA02F24B
:100690000C6842F2043CC4F2010C2243ACF54174F4
:1006A000A3420A603ED1BEF1120F07D1DCF8001060
:1006B00041F48001CCF8001034E000BF2EF00101BD
:1006C00010292FD1DCF80010BEF1100F41F4000109
:1006D000CCF8001026D140F23801C2F200010968BE
:1006E0004DF68362C4F21B32A1FB0212910C01EBA6
:1006F0008101490000910099A1B10099013900914F
:10070000009979B1009901390091009951B100998E
:1007100001390091009929B100990139009100999E
:100720000029EAD1002180F83C10002001B070BD02
:10073000704700007047000070470000002804BFA9
:100740000120704710B5016C00293DD0016CC9062D
:1007500045D4016C41F202129143023142F204325B
:100760000164C4F20102116821F440311160136880
:1007700090E812102343D0F810E013604A68012477
:1007800022F480724A604A68C0F6007442EA0E227F
:100790004A604A6822F040724A604A6842EA0C02A3
:1007A0004A608A6822F400628A60C2688B681A43D1
:1007B0008A60826A8B68A24223F070638B608B68C8
:1007C00010D123F0405216E0044600F065F82046B0
:1007D0000021616484F83C10016CC906B9D501217F
:1007E00053E000BF1A438A608A6822F040528A6050
:1007F000C26A8B681A438A608A6822F002028A60A1
:100800008A68037E90F8204042EA43028A604A6880
:1008100084B142F400624A604A684EF2000322F456
:1008200060424A60426ACFF6FF734C6803EB423283
:10083000224301E022F400624A60CA6A40F2000CDE
:1008400022F47002CA62C3694269CFF6F07CCC6AB6
:100850000CEB03532343CB628B6823F400738B6050
:1008600090F830308C6844EA43238B608B6823F423
:1008700080638B608B6843EA82228A600021416436
:10088000026C012363F301020264002280F83C2021
:10089000BDE810400846704770B586B0044642F285
:1008A00000002168C4F20100002681420596CDE9CE
:1008B00003660296019601D006B070BD43F6300182
:1008C0000096C4F202014A6900F5684042F4807261
:1008D0004A614A6902F480720092009A00960A689E
:1008E00042F004020A60096801F0040100910099D5
:1008F0000F2101910321CDE9021601A900F096FC18
:1009000040F2B41546F21040C2F20005C4F20200F3
:100910004FF48061C5E9000605F110004FF4006254
:100920004FF400534EC02846C5E90266C5E9086683
:1009300000F046FB002818BFFFF74CFEA563AC6330
:1009400006B070BD70B5044600680D468268520559
:1009500044BF80685FEAC05038D400F043FD21688E
:100960000A68920749D40646681C3CD0DDB908687D
:10097000800721D5086880073FD4086880071BD509
:100980000868800739D40868800715D5086880078B
:1009900033D4086880070FD508688007E7D52CE0B6
:1009A0000868800729D400F01DFD801B2168A8423B
:1009B000F6D908688007F3D4206C40F00400206466
:1009C000002084F83C00032070BD00BF206C40F084
:1009D00020002064002084F83C00012070BD00BF8E
:1009E0000868800709D40868800706D4086880076B
:1009F0005CBF08685FEA8070F2D56FF01200086093
:100A0000206C40F400702064886810F0405F01D0D2
:100A1000002070BD207E0028FAD1C86A10F4700F43
:100A200002D088684005F3D4206C20F480702064E4
:100A3000206CC004ECD4206C40F001002064002045
:100A400070BD000010B581B00021009190F83C10FD
:100A5000012903D1022001B010BD00BF04680121AB
:100A600080F83C10214651F8083FDB0729D10B687C
:100A70004DF6836243F001030B6040F23803C2F28B
:100A800000031B68C4F21B32A3FB02239A0C02EB87
:100A900042020092009AA2B1009A013A0092009A92
:100AA0007AB1009A013A0092009A52B1009A013A42
:100AB0000092009A2AB1009A013A0092009A002A04
:100AC000EAD10A68036CD2070CD143F0100101642B
:100AD00000F1440101200A6810430860002001B0C1
:100AE00010BD00BF40F2017223EA020202F58072DB
:100AF00002646268520504D5026C012363F30D326F
:100B00000264026C4FF0000E0023D20444BF426C1A
:100B100022F0060342F2043C436480F83CE06FF0AC
:100B20002200C4F2010C2060DCF80000C0060DD0E9
:100B3000ACF5417084422BD14FF60450CFF6FF70D4
:100B40005CF8000010F0405F22D125E042F2000086
:100B5000C4F20100844217D042F20020C4F2010026
:100B600084420DD042F20010C4F2010084420FD141
:100B7000DCF80000C00607D0ACF58270844207D1D3
:100B8000DCF80000C00603D4086810F0405F03D012
:100B9000002001B010BD00BF4FF080409BE7000077
:100BA000B0B582B00023019390F83C30012B03D103
:100BB000022002B0B0BD00BF8E460123016880F85C
:100BC0003C308B689446DB0729D18B684DF68364F3
:100BD00043F001038B6040F23803C2F200031B684C
:100BE000C4F21B34A3FB0434A30C03EB43030193B3
:100BF000019BA3B1019B013B0193019B7BB1019B35
:100C0000013B0193019B53B1019B013B0193019B6C
:100C10002BB1019B013B0193019B002BEAD18B6817
:100C2000DB0503D58B6823F480738B608C68036CC1
:100C3000E4070BD143F01001016444300121026844
:100C400011430160002002B0B0BD00BF40F201744A
:100C5000A34303F5807303644B685B0504D5036C01
:100C6000012464F30D330364046C0023E4044FF0A7
:100C7000000444BF446C24F00604446480F83C3013
:100C8000836B40F24D4440F2D142C0F60004C0F6FE
:100C90000002C3E90F4240F2BD42C0F60002DA642E
:100CA0006FF022020A604A6842F2043442F0806225
:100CB0004A608A68054642F480728A604C31184660
:100CC00072466346C4F2010400F02CFA21682868D9
:100CD000C90607D0A4F54171884227D0002002B090
:100CE000B0BD00BF42F20001C4F20101884215D03C
:100CF00042F20021C4F2010188420CD042F20011FC
:100D0000C4F201018842E9D12168C90606D0A4F5E0
:100D100082718842E2D12168C906DFD450F8081FE9
:100D200011F0405FDAD14FF0804188E74FF6045070
:100D3000CFF6FF70205810F0405FCFD1A4F53F7080
:100D40004FF080417BE7000070B5866D044600F0EF
:100D500049FB94F83510022928D105462068216CFA
:100D6000026822F016020260426922F080024261AB
:100D700009B9A16C19B1016821F00801016001688D
:100D800021F00101016000BF20680068C00715D094
:100D900000F028FB401B0628F6D3202060650320C6
:100DA00084F83500002184F8341070BD802060651F
:100DB0000120002184F8341070BD00BFE06D3F2198
:100DC00001FA00F0B060012084F835000020002115
:100DD00084F8341070BD000090F83510022909D154
:100DE000052180F835100068016821F001010160DB
:100DF000002070478021416501207047F0B581B027
:100E00000021009140F23801C2F200010B68D0E9E4
:100E1000166148F2B51537680822C1F64E358A408A
:100E20003A42A3FB05350CD003681C68640708D55B
:100E30001C6824F004041C60B260426D42F00102A0
:100E4000426501228A403A4208D003685B691B066A
:100E500004D5B260426D42F00202426504228A402B
:100E60003A4208D003681B689B0704D5B260426D04
:100E700042F00402426510228A403A4219D00168C9
:100E80000B681B0715D5B2600B680A685B0309D4B1
:100E9000D20509D40A6822F008020A60016C29B957
:100EA00007E000BF110341D4016C11B1044688472B
:100EB0002046C26D202101FA02F33B4243D0016873
:100EC0000F68FF063FD5B36090F835700B68052FAB
:100ED0001CD123F016030B604B6923F080034B6198
:100EE000036C0BB9836C1BB10B6823F008030B6018
:100EF0003F219140B160012180F83510016D002241
:100F0000002980F8342054D158E000BF0A685B0300
:100F100010D4D20512D40A6822F010020A6001210E
:100F200080F83510002180F8341007E0816C00292A
:100F3000BCD1BEE7110301D4416C00E0C16B11B11B
:100F4000044688472046416DC1B3416DC9072ED084
:100F5000052180F835100168AA0A0B6823F0010307
:100F60000B60009B0133934200931AD80B68DB0798
:100F700017D0009B01339342009312D80B68DB0714
:100F80000FD0009B0133934200930AD80B68DB0714
:100F900007D0009B01339342009302D80B68DB0714
:100FA000DFD1012180F83510002180F83410C16CA8
:100FB00021B101B0BDE8F040084700BF01B0F0BD6D
:100FC0002DE9F041044600F00DFAECB1054602208F
:100FD00084F835000020216884F83400086820F087
:100FE0000100086021680868C00711D000F0FAF914
:100FF000401B0528F6D9032520230320636584F8C8
:101000003550BDE8F08100BF0120BDE8F08100BF90
:10101000086848F23F02CFF21002D4E9013500EA35
:10102000020C04F10C0898E8C10143EA0C032B43BD
:101030001843D4E9072E304338431043626A40EA2C
:101040000E00042A40EA08031CD1206BD4E90A2EC2
:1010500040EA0E00184308604869BEF1000F20F016
:10106000030040EA020040F0040C11D0B8F5005F24
:1010700036D0B8F1000F45D1022A46D0012A3BD024
:1010800032B942E00B60486920F0070040EA020CE8
:1010900001F0F8004AF6AB221038CAF6AA22A0FBEB
:1010A00002231A0943F6C233C1F814C0C0F6000384
:1010B0009A5C40F2FF335F284FF03F0021EA0301C2
:1010C00000FA02F088BF0431C4E9161288600023D8
:1010D00001250020636584F83550BDE8F08100BF2C
:1010E000032AD5D8012540230120DFE802F0030EB2
:1010F000030500BF82E700BFAEF1C070B0FA80F018
:10110000400904E0032A04D3C2D1CEF300600028D2
:10111000BED0012540230120636584F83550BDE829
:10112000F081000090F834C0BCF1010F04BF022030
:10113000704770B54FF0010C80F834C0D0F858E01B
:1011400090F835C0BCF1010F38D14FF0020C80F897
:1011500035C04FF0000CC0F854C0D0F800C084680F
:10116000056CC06DDCF80060402C26F48026CCF8BD
:101170000060CCF804300B4604BF13460A463F21FA
:1011800001FA00F0CCF80830CCF80C20CEF80800BA
:10119000DCF8000040F01600CCF800002DB1DCF8BF
:1011A000000040F00800CCF80000DCF8000040F03F
:1011B0000100CCF80000002070BD00BF002180F8C5
:1011C0003410022070BD000080B5B0F5007F0FD054
:1011D00080281DD140F60000C4F202004FF40071D7
:1011E00000F0F4F870B1012818BF80BD02200AE0B9
:1011F00040F60000C4F202004FF4807100F0E6F8FF
:101200000028F0D1012040F2CC01C2F20001488058
:1012100080BD000043F61441C4F201010A68024295
:1012200014BF08607047FFF7CFBF00002DE9F04FF3
:1012300083B000F1200200F13E4741F600450092E4
:1012400007F1FF77C4F2020508224FEAB726A84249
:1012500008BF072200254FF000084FF00009072EB5
:1012600038BF4FEAB72201920AE000BF09F1010935
:1012700008F10208B9F1100F05F1040500F0A28091
:101280000F68012202FA09FE17EA0E0AEED0D1F821
:1012900004C003220CF003077E1E02FA08F4012E9C
:1012A0006FEA040B12D88468CE6804EA0B0406FACD
:1012B00008F634438460446824EA0E06CCF3001434
:1012C00004FA09F42643466004E000BF032F01D16D
:1012D00003271EE0C6688C6806EA0B0604FA08F4C9
:1012E0002643022FC66014D16FF00302009E02EA6B
:1012F000590756F807C005F01C040F220B69A240DD
:101300002CEA0202A3401A43F251D1F804C00CF0B7
:101310000307026807FA08F302EA0B021A431CF4F7
:10132000403F0260A2D0002243F644030292C4F27E
:1013300002031A6843F6004442F480421A601A68B5
:10134000C4F2010402F480420292029A29F00302DC
:101350004FF6084C2244CFF6FF7C52F80C3005F0D3
:101360000C070F26BE40B343019E06FA07F73B4326
:1013700042F80C30A2684B6842EA0A0743F60C4C6C
:10138000DE0258BF22EA0A07A760C4F2010CDCF8AB
:1013900000209E0242EA0A0758BF22EA0A07CCF858
:1013A000007062689E0342EA0A0758BF22EA0A07F1
:1013B00067602268DB0342EA0A0758BF22EA0A078D
:1013C000276053E703B0BDE8F08F000000690840D4
:1013D00018BF012070470000002A08BF090481617E
:1013E0007047000040F2FC40C2F200000068704705
:1013F00040F2000040F2FC41C2F20000C2F20001E3
:1014000000780A68104408607047000080B543F611
:101410000040C4F20200016841F4007101600168FB
:1014200041F480610160016841F480710160032032
:1014300000F086F80F2000F005F800F027F80020F3
:1014400080BD000070B540F20006C2F2000640F216
:1014500038013278C2F200014FF47A730968B3FBA5
:10146000F2F20446B1FBF2F1084600F05FFB0F2CEC
:101470004FF0010508D838B94FF0FF30214600225F
:10148000002500F031F87460284670BD82B000205D
:1014900043F640010190C4F202014A6842F48042DE
:1014A0004A604A6802F480420192019A00900868FA
:1014B00040F080500860086800F08050009000986C
:1014C00002B07047002848BF704700F01F0101229A
:1014D00002FA01F11C2202EAD0004EF20012CEF212
:1014E000000281507047000010B54EF60C5CCEF241
:1014F000000CDCF80030C3F3022E8EF00704042C3D
:1015000028BF0424BEF103034FF0FF3E0EFA04F49B
:1015100038BF0023A14399400EFA03F39A431143C5
:1015200000F00F0200F160430901043A03F564433F
:101530006244002848BF02F10C03197010BD00007E
:101540004EF60C51CEF200010A684FF6FF031A4026
:1015500060F30A2242F0806040F0FD70086070473E
:10156000002804BF012070472DE9F04143F6080828
:10157000C4F202080446D8F8F8030D4600F007004C
:10158000884207D288F8F853D8F8F80300F007002B
:10159000A84277D12068810717D5410705D5D8F82B
:1015A000001041F4E051C8F80010010705D5D8F843
:1015B000001041F46041C8F80010D8F80010A2688B
:1015C00021F0F0011143C8F80010C00740D1D8F84D
:1015D000F80300F00700A84207D988F8F853D8F8B4
:1015E000F80300F00700A8424CD12068410707D556
:1015F000D8F80010E26821F4E0511143C8F8001057
:10160000000708D5D8F80000216920F4604040EABE
:10161000C100C8F8000000F07DF8D8F8001043F6CB
:10162000AA32C1F30311C0F60002515C40F2380245
:1016300020FA01F140F20400C2F200000068C2F298
:1016400000021160FFF7FEFE0020BDE8F08100BF40
:101650006068811E022907D258F8081C89015CBF06
:101660000120BDE8F08111E0012807D158F8081CDD
:1016700089035CBF0120BDE8F08107E058F8081C31
:10168000890703D40120BDE8F08100BFD8F800101D
:1016900021F003010843C8F80000FFF7A3FE064647
:1016A00041F28837D8F80000616800F00C00B0EB18
:1016B000810F8CD0FFF796FE801BB842F2D9032031
:1016C000BDE8F08140F2380043F60801C2F20000A4
:1016D000C4F202010068096843F6BA32C1F38221FC
:1016E000C0F60002515CC8407047000040F238006C
:1016F00043F60801C2F20000C4F202010068096862
:1017000043F6BA32C1F34231C0F60002515CC84020
:101710007047000010B543F60404C4F20204606888
:1017200000F00C0008280BD0042819BF42F200403A
:10173000C0F2F40047F64000C0F27D1010BD00BFBB
:10174000206821682368490247F64001C0F27D11F4
:1017500000F03F02C3F388105CBF42F20041C0F2C8
:10176000F401A1FB00010023FEF794FD2168022291
:10177000C1F3014102EB4101B0FBF1F010BD0000EB
:10178000002804BF012070472DE9F04182B00446D3
:10179000007843F60006C007C4F202060CD0B06819
:1017A00000F00C00042840F081803068800303D5ED
:1017B0006068002800F06881207880071BD5B06839
:1017C00010F00C0F09D0B06800F00C00082840F0B1
:1017D00087807068400200F183803068800703D5FD
:1017E000E068012840F050813068216920F0F8005D
:1017F00040EAC10030602078000713D42078400709
:101800002AD4A569002D00F03A81B06800F00C00E0
:10181000082840F0A580012D40F00E81012002B083
:10182000BDE8F0816069002800F082800020C4F2E9
:1018300047200121C0F8801EFFF7D4FD054600BFF8
:10184000706F8007DAD4FFF7CDFD401B0228F7D96F
:10185000032002B0BDE8F081306C5FEAC0080AD412
:1018600000200190306C40F080503064306C00F00B
:1018700080500190019847F20007C4F200073868D1
:10188000C00547D4386840F480703860FFF7AAFD7F
:10189000054600BF3868C0053CD4FFF7A3FD401BD8
:1018A0000228F7D9032002B0BDE8F081B06800F04B
:1018B0000C00082803D1706840023FF576AF6168DC
:1018C0003068B1F5803F07D0B1F5A02F40F09A8085
:1018D00040F480203060306840F4803030609AE01E
:1018E000E068002840F20000C4F247205CD00121EB
:1018F0000160FFF777FD0546306880073FF574AF5C
:10190000FFF770FD401B0228F6D9032002B0BDE8A6
:10191000F08100BFA168306F012905D0052955D19C
:1019200040F004003067306F40F00100306756E04F
:101930000020C4F247200021C0F8801EFFF752FDAE
:10194000054600BF706F80077FF558AFFFF74AFD6F
:10195000401B0228F6D9032002B0BDE8F08100BF89
:101960000027C4F2472700203866FFF73BFD022D11
:1019700005460DD13068800140F18A80FFF732FDC5
:10198000401B02284FF00300F4D902B0BDE8F081FB
:101990003068800173D5FFF725FD401B02284FF00A
:1019A0000300F5D9F1E700BF00210160FFF71AFD40
:1019B000054600BF306880077FF51DAFFFF712FDB9
:1019C000401B02284FF00300F4D9DEE720F00100AD
:1019D0003067306F002920F0040030677AD0FFF7BD
:1019E00001FD054641F28837306F800700F18480A1
:1019F000FFF7F8FC401BB842F6D9032002B0BDE85F
:101A0000F08100BF20F4803030603068002920F47D
:101A1000802030607AD0FFF7E5FC0546306880030F
:101A20003FF5CAAEFFF7DEFC401B6428F6D9032061
:101A300002B0BDE8F08100BF7068E16900F4800287
:101A40008A4221D1216A00F03F028A421CD147F626
:101A5000C071626A0140B1EB821F15D1A16A4FF6D5
:101A6000FF73C903994300F44032A1F580318A42E3
:101A70000AD1E16A00F07060B0EB016F04D1002080
:101A800002B0BDE8F08100BF012002B0BDE8F081E6
:101A900004F11C052FCD084340EA8210D9034FF60C
:101AA000FF729143A1F5803140EA05600843706000
:101AB00001203866FFF796FC044600BF30688001BD
:101AC000DDD4FFF78FFC001B02284FF00300F5D98F
:101AD0005BE700BFFFF786FC054641F2883700BF91
:101AE000306F800708D5FFF77DFC401BB8424FF0F0
:101AF0000300F5D949E700BFB8F1000F3FF581AE0B
:101B0000306C20F0805030647BE600BFFFF76AFC49
:101B1000054600BF306880037FF54EAEFFF762FCDC
:101B2000401B64284FF00300F4D92EE7411E00202B
:101B3000B0EB116F1CBF012070474EF21002CEF2C5
:101B4000000251604EF62351CEF20001F0230B70DB
:101B500007219060116070477047000070470000D7
:101B600090F83C20012A4FF0020254D010B580F8C2
:101B70003D200268D2F804E0D2F808C00C682EF0CC
:101B80007003234341F2FF74C4F20004A242536085
:101B90000EDC40F2FF73C4F200039A4216DCB2F18D
:101BA000804F2BD040F20043C4F2000324E000BF7A
:101BB00040F2FF33C4F201039A4213DC41F6000302
:101BC000C4F200039A4219D0002313E040F6000348
:101BD000C4F200039A4211D040F60043C4F200035D
:101BE0000AE000BF44F20003C4F201039A4205D0A8
:101BF00040F20043C4F201039A4204D149682CF038
:101C00008003194391600121002280F83D1080F883
:101C10003C20BDE81040104670470000002804BF7B
:101C20000120704710B5044690F83D0028B9002007
:101C300084F83C00204600F01FF8022084F83D00A4
:101C40002068211D01F01CFA012084F8460084F868
:101C50003E0084F83F0084F8400084F8410084F896
:101C6000420084F8430084F8440084F8450084F876
:101C70003D00002010BD000010B584B0006840F6A3
:101C80000001C4F20001884232D040F20041C4F2A7
:101C90000001884218D0B0F1804F1CBF04B010BDC5
:101CA0000020039043F64000C4F2020001680022C5
:101CB00041F0010101600068022100F00100039081
:101CC00003981C201C2426E00020029043F64000CC
:101CD000C4F202000168002241F0020101600068C4
:101CE000012100F00200029002981D201D2412E044
:101CF0000020019043F64000C4F202000168002277
:101D000041F0040101600068002100F0040001902E
:101D100001981E201E24FFF7E7FB204604B0BDE813
:101D20001040FFF7CFBB000090F83D1001291CBF09
:101D300001207047022180F83D10006841F2FF72D7
:101D4000C168C4F20002904241F00101C1600DDCA3
:101D500040F2FF71C4F20001884215DCB0F1804FFF
:101D60002AD040F20041C4F2000123E040F2FF31EA
:101D7000C4F20101884213DC41F60001C4F2000103
:101D8000884219D0002113E040F60001C4F200019E
:101D9000884211D040F60041C4F200010AE000BFC1
:101DA00044F20001C4F20101884205D040F2004132
:101DB000C4F20101884206D1816801F007010629B9
:101DC00004BF00207047016841F00101016000205C
:101DD0007047000090F83C20012A4FF002026CD0BE
:101DE00080B580F83D20D0F800C04FF67772DCF85F
:101DF000083023EA0202CCF808200B684F2B29DCBC
:101E00001F2B45DD202B46D0302B44D0402B40F0FB
:101E1000AF80D1F804E0C968DCF82030DCF820207D
:101E200022F00102CCF82020DCF8182022F0F00289
:101E300042EA011123F00A0242EA0E02CCF818101D
:101E4000CCF82020DCF8081041F0470121F03001E7
:101E500028E000BF6F2B33DDB3F5005F74D0B3F51E
:101E6000805F21D0702B40F08380D1E901E3C96805
:101E7000DCF8082043EA0E0322F47F4243EA012102
:101E80001143CCF80810DCF8081041F0770109E0A4
:101E90000BB1102B6CD1DCF8081021F07001194344
:101EA00041F00701CCF808100022012180F83D1014
:101EB000002180F83C10BDE880401046704700BF0C
:101EC000502B21D0602B53D1D1F804E0C968DCF845
:101ED0002030DCF8202022F01002CCF82020DCF8A2
:101EE000182022F4704242EA013123F0A00242EAB3
:101EF0000E12CCF81810CCF82020DCF8081041F0B5
:101F0000670121F01001CDE7D1F804E0C968DCF8E1
:101F10002030DCF8202022F00102CCF82020DCF870
:101F2000182022F0F00242EA011123F00A0242EAEC
:101F30000E02CCF81810CCF82020DCF8081041F084
:101F4000570121F02001ADE7D1E901E3C968DCF8D0
:101F5000082043EA0E0322F47F4243EA01211143A1
:101F6000CCF80810DCF8081041F480419AE700BF73
:101F700001229AE77047000070B504460068C56802
:101F80000669B10716D515F0020113D06FF00201F2
:101F90000161012121778069800703D02046FFF786
:101FA000E9FF05E0204600F08FF8204600F08EF8AB
:101FB00000202077700719D515F0040016D020688E
:101FC0006FF00401016102212177806910F4407FE4
:101FD00004D02046FFF7CEFF06E000BF204600F009
:101FE00073F8204600F072F800202077300717D5EC
:101FF00015F0080014D020686FF008010161042179
:102000002177C069800703D02046FFF7B3FF05E0C2
:10201000204600F059F8204600F058F800202077BC
:10202000F00619D515F0100016D020686FF01001D9
:10203000016108212177C06910F4407F04D0204657
:10204000FFF798FF06E000BF204600F03DF820466D
:1020500000F03CF800202077F00718BF15F00100D1
:1020600002D1300609D412E020686FF0010101614D
:10207000204600F02DF8300609D515F0800006D076
:1020800020686FF0800101612046FFF765FD700652
:1020900009D515F0400006D020686FF040010161BD
:1020A000204600F0F3F8B00658BF70BD15F02000D0
:1020B00008D021686FF0200220460A61BDE8704018
:1020C000FFF74CBD70BD0000704700007047000076
:1020D00070B540F29431C2F200010446006809680C
:1020E000884272D10025C4F2020505F54060042142
:1020F000FFF76CF940B140F2A000C2F20000416865
:10210000B1B10139416020E040F26810C2F2000034
:102110000178002241F00F01017028460221FFF7EB
:102120005BF940F2A000C2F20000C82141600CE05F
:1021300040F26810C2F200000178002201F0F001C4
:10214000017028460221FFF747F928468021FFF752
:102150003DF948B140F2A000C2F200004168B9B1B7
:102160000139416021E000BF40F26810C2F2000076
:102170000178002241F0F001017028460121FFF7AB
:102180002BF940F2A000C2F20000C82181600CE0EF
:1021900040F26810C2F200000178002201F00F0145
:1021A000017028460121FFF717F940F26C1040F248
:1021B0001411C2F20000C2F200010822FEF7F0FC86
:1021C00001F062FB01F01EFA206840F2DC31C2F23D
:1021D00000010968884201D070BD00BF0024C4F22C
:1021E000020420464FF40041FFF7F0F840F2A00649
:1021F000C2F200063168706121B3FEF7EFF906F113
:102200001C0540F21C11C2F2000128460A2201F00E
:102210008BFC20464FF40041FFF7D8F8012819D075
:10222000002818BF70BD306903281DD140F26C40F2
:10223000C2F2000029460E2200F008FC00203061A6
:1022400070BD00BFF068642812DC0130F06001F05E
:1022500007FC0FE040F2B440C2F2000029460E2213
:10226000BDE8704000F0F2BB0130306170BD00BFCE
:1022700001F0BAFB20464FF40041FFF7A7F8B1691F
:102280008142A9D00120306070BD0000704700007D
:102290007047000070470000B0B582B001680A685E
:1022A000CC684B6902F02F05202D04F0200505D1E4
:1022B00025B102B0BDE8B04001F0A4B85FEA027CED
:1022C0001EBF03F0010E04F4907313EB0E0341D113
:1022D000036BD50618D5012B16D114F0100313D0BB
:1022E000002201920A6801924A680192019A4969A2
:1022F00049064BD4818DC28DC38D002B18BF9142EE
:1023000040F0F48102B0B0BD13062DD514F0800367
:102310002AD090F84120212AF4D18268B2F5805F5A
:1023200003D10269002A00F06782026A531C03622B
:1023300012784A60C28C013A1304C284E2D1C868A0
:1023400020F08000C860C86840F04000C86002B05B
:10235000B0BD00BFD30718BF14F4807340F0D08025
:10236000530700F1D380D8E05206CBD514F04002D9
:10237000C8D0CA6822F04002CA60202180F841100B
:1023800002B0BDE8B04000F0BFBB00BFC16B0A683F
:10239000526893B2002BB5D0858DAB42B2D2C285C4
:1023A000C969B1F5807F00F0A080016851E8031F82
:1023B000026821F4807142E80313DBB1016851E83F
:1023C000031F026821F4807142E8031393B101688E
:1023D00051E8031F026821F4807142E803134BB1F6
:1023E000016851E8031F026821F4807142E8031379
:1023F000002BDAD1016851E8051F026821F00101C4
:1024000042E80513BBB3016851E8051F026821F0DB
:10241000010142E8051373B3016851E8051F026822
:1024200021F0010142E805132BB3016851E8051FB3
:10243000026821F0010142E80513002BDAD11AE00D
:10244000016851E8051F026821F0400142E80513C8
:10245000DBB1016851E8051F026821F0400142E844
:10246000051393B1016851E8051F026821F040018E
:1024700042E805134BB1016851E8051F026821F0DD
:10248000400142E80513002BDAD1202180F84210E8
:1024900000210163016851E8031F026821F0100167
:1024A00042E80313DBB1016851E8031F026821F021
:1024B000100142E8031393B1016851E8031F026859
:1024C00021F0100142E803134BB1016851E8031FEA
:1024D000026821F0100142E80313002BDAD1C16B2E
:1024E00004460846FEF730FC204602214163818DF8
:1024F000C28D891A89B202B0BDE8B040FFF7C8BEEC
:10250000436C43F001034364530706D5BEF1000F4B
:1025100003D0436C43F002034364930706D5BEF136
:10252000000F03D0436C43F004034364BCF1000F7D
:1025300006D55EEA050303D0436C43F00803436409
:10254000436C002B3FF4DEAE920605D525B1044660
:1025500000F058FF216820464969426C01F04001B3
:1025600002F00802891800F0B98000BF016851E844
:10257000031F026821F4907142E80313BBB30168A2
:1025800051E8031F026821F4907142E8031373B30A
:10259000016851E8031F026821F4907142E80313B7
:1025A0002BB3016851E8031F026821F4907142E8DF
:1025B0000313002BDAD11AE0016851E8051F026805
:1025C00021F0010142E80513DBB1016851E8051F64
:1025D000026821F0010142E8051393B1016851E856
:1025E000051F026821F0010142E805134BB10168A3
:1025F00051E8051F026821F0010142E80513002B94
:10260000DAD1016B012924D1016851E8031F026866
:1026100021F0100142E80313DBB1016851E8031F08
:10262000026821F0100142E8031393B1016851E8F8
:10263000031F026821F0100142E803134BB1016847
:1026400051E8031F026821F0100142E80313002B38
:10265000DAD1202180F84210002101630168496924
:10266000490640F1C380016851E8051F026821F066
:10267000400142E80513DBB1016851E8051F02681B
:1026800021F0400142E8051393B1016851E8051FAC
:10269000026821F0400142E805134BB1016851E89E
:1026A000051F026821F0400142E80513002BDAD132
:1026B000C16B002900F09A8043F2C512C0F60002F7
:1026C000044608460A65FEF787FB00283FF41AAE69
:1026D000E06B016D02B0BDE8B04008470446FFF76B
:1026E000D9FD0020606402B0B0BD00BF891A00BFF0
:1026F000026852E8032F036822F4907243E803252E
:10270000BDB3026852E8032F036822F4907243E8D5
:10271000032575B3026852E8032F036822F4907210
:1027200043E803252DB3026852E8032F036822F41F
:10273000907243E80325002DDAD11AE0026852E8CE
:10274000052F036822F0010243E80525DDB1026888
:1027500052E8052F036822F0010243E8052595B1F0
:10276000026852E8052F036822F0010243E80525BC
:102770004DB1026852E8052F036822F0010243E8D8
:102780000525002DDAD1202280F8422000220263A4
:10279000026852E8032F036822F0100243E8032581
:1027A000DDB1026852E8032F036822F0100243E80B
:1027B000032595B1026852E8032F036822F0100246
:1027C00043E803254DB1026852E8032F036822F065
:1027D000100243E80325002DDAD1022289B24263B8
:1027E00002B0BDE8B040FFF753BD00BF02B0BDE886
:1027F000B040FFF74FBD00BF026A32F8023B6FF3F3
:102800005F234B60026295E5002804BF01207047FA
:1028100010B5044690F8410028B9002084F8400023
:10282000204600F021F8242084F841002068C16887
:1028300021F40051C160204600F064FE2068016967
:1028400021F490410161416921F02A014161C1688F
:1028500041F40051C16000202021606484F84110DF
:1028600084F84210606310BD2DE9F04786B004463D
:10287000006844F20041C4F2000100268842CDE91C
:102880000466CDE9026601966ED041F20001C4F201
:102890000101884240F0D58043F630000096C4F232
:1028A0000200416946F2880841F010014161416926
:1028B000C4F2020801F0100100910099009601682D
:1028C00041F002010160006801A900F002000090DF
:1028D0000098C02001900220CDE902060320049058
:1028E000072005900020C4F2020000F58060FEF78A
:1028F0009DFC40F2142508F56E70C2F200054FF001
:10290000006A4FF48069C5E9000A4FF40037284691
:10291000C5E90266C5E90496C5E90666C5E9087613
:10292000FEF74EFB002818BFFDF754FEE563AC63CD
:1029300040F2742508F58660C2F200054021C5E921
:10294000000A05F1080080E842022846C5E905664C
:10295000EE61C5E90876FEF733FB00284FF0250647
:1029600018BFFDF737FE62E043F630000096C4F270
:102970000200016946F2880841F4003101610169F1
:10298000C4F2020801F40031009100990096016838
:1029900041F001010160006801A900F00100009010
:1029A00000980C2001900220CDE90206032004903B
:1029B000072005900020C4F20200FEF737FC40F229
:1029C000D425C2F200054FF0006A4FF480694FF43D
:1029D00000372846C5E9008AC5E90266C5E90496BC
:1029E000C5E90666C5E90876FEF7EAFA002818BFC9
:1029F000FDF7F0FDE563AC6340F2343508F11800F3
:102A0000C2F200054021C5E9000A05F108000022D4
:102A100080E806022846C5E90522EA61C5E9087290
:102A2000FEF7CEFA4FF0260608B1FDF7D3FD30468B
:102A300000210022A563AC63FEF756FD3046FEF789
:102A400041FD06B0BDE8F08770470000B0B590F8D2
:102A50004140202C1CBF0220B0BD134600294FF07E
:102A6000010218BF002B01D11046B0BD0022212465
:102A700001628384C384426480F84140D0F838C046
:102A800043F24D3E43F2FD35C0F6000EC0F60005A0
:102A90000468CCE90FE543F2D115C0F60005CCE996
:102AA0001352221D04466046FEF73CFB2168204677
:102AB0006FF040020A6000BF016851E8051F02681C
:102AC00041F0800142E80513DBB1016851E8051FC0
:102AD000026841F0800142E8051393B1016851E8B2
:102AE000051F026841F0800142E805134BB10168FF
:102AF00051E8051F026841F0800142E80513002BF0
:102B0000DAD100221046B0BD7047000070470000C7
:102B1000FEE70000B0B584B040F26C100121C2F2B3
:102B2000000042F2000C0323C0F600710024C4F23E
:102B3000010C4FF480320125C0E9093104210394CE
:102B4000047680F82050C462C16180F83050C0E93A
:102B500000C2C0E90244C0E90455FDF7EFFD0028BA
:102B600018BFFDF737FD0A20CDE9000540F26C10D3
:102B7000C2F2000069460294FDF738FD002818BF34
:102B8000FDF728FD0B2000900220019040F26C1010
:102B9000C2F200006946FDF729FD002818BFFDF7C5
:102BA00019FD0C2000900320019040F26C10C2F23D
:102BB00000006946FDF71AFD002818BFFDF70AFD61
:102BC0000D2000900420019040F26C10C2F2000031
:102BD0006946FDF70BFD002818BFFDF7FBFC04B0AC
:102BE000B0BD000080B582B0002043F630010190F6
:102BF000C4F202010A6842F480020A600A6802F420
:102C000080020192019A00900868002240F40010AE
:102C100008600868002100F400100090009810205F
:102C2000FEF762FC1020FEF74DFC1120002100226F
:102C3000FEF75AFC1120FEF745FC38200021002247
:102C4000FEF752FC3820FEF73DFC3A20002100221E
:102C5000FEF74AFC3A20FEF735FC46200021002210
:102C6000FEF742FC462002B0BDE88040FEF72ABCD9
:102C70002DE9F04387B0002443F630000694CDE9F7
:102C80000444CDE902440194C4F20200016840F218
:102C9000000841F0800101600168C4F2020801F0FF
:102CA00080010191019901940168002241F0040121
:102CB000016001684FF0030901F0040101910199DD
:102CC0000194016841F001010160016801F0010116
:102CD000019101990194016841F0020101600168CC
:102CE00001F00201019101990194016841F008018C
:102CF00001600068032100F008000190019840463F
:102D0000FEF76AFB012002ADCDE9030440462946E7
:102D1000CDF808900594FEF789FA41F6F070CDE9F8
:102D20000204404629460494FEF780FA41F67050AA
:102D300008F50066CDE90204304629460494FEF702
:102D400075FA4EF23B0008F58067CDE9020438467B
:102D500029460494FEF76AFA4FF44060029002207C
:102D600003A981E811020720069038462946FEF79C
:102D70005DFA4FF4207002904FF48810CDE90304FF
:102D800030462946FEF752FA0420CDE9020408F540
:102D9000406029460494FEF749FA172000210022DA
:102DA000FEF7A2FB1720FEF78DFB07B0BDE8F0830E
:102DB00080B586B040F294300021C2F2000040F2AB
:102DC000E73C0591CDE90311CDE900114FF08042B8
:102DD0005323C0E9021C01618021C0E90023816105
:102DE000FEF71CFF002818BFFDF7F4FB4FF48050DE
:102DF000029040F29430C2F2000002A9FEF7EAFF0E
:102E0000002818BFFDF7E6FB40F29430C2F2000044
:102E10006946FEF7A5FE002818BFFDF7DBFB06B0EC
:102E200080BD000080B586B040F2DC300021C2F2E7
:102E3000000040F2004240F2135C0591CDE903111D
:102E4000CDE90011C4F2000240F28F63C0E9021C18
:102E500001618021C0E900238161FEF7DFFE0028C7
:102E600018BFFDF7B7FB4FF48050029040F2DC3002
:102E7000C2F2000002A9FEF7ADFF002818BFFDF75F
:102E8000A9FB40F2DC30C2F200006946FEF768FEA2
:102E9000002818BFFDF79EFB06B080BD80B586B048
:102EA00040F2244040F600020021C2F20000C4F2C9
:102EB0000002532340F2E73C0591CDE90311CDE92F
:102EC0000011C0E90023C0E9021C01618161FEF725
:102ED000A5FE002818BFFDF77DFB4FF4805002903F
:102EE00040F22440C2F2000002A9FEF773FF00285E
:102EF00018BFFDF76FFB40F22440C2F200006946A4
:102F0000FEF72EFE002818BFFDF764FB06B080BD5B
:102F100080B540F26C4041F20001C2F20000C4F200
:102F2000010100234FF00C0C4FF4E13280E80E0059
:102F3000C0E90333C0E905C3C361FFF765FC00289E
:102F400008BF80BDBDE88040FDF744BB80B540F2BE
:102F5000B44044F20041C2F20000C4F20001002378
:102F60004FF00C0C4FF4E13280E80E00C0E903335F
:102F7000C0E905C3C361FFF747FC002808BF80BD57
:102F8000BDE88040FDF726BBFEE70000FEE700003D
:102F90007047000070470000FEF72ABA70B592B083
:102FA00006AC20463021FDF7EDF9002543F6400040
:102FB0000595CDE90355CDE901550095C4F2020010
:102FC0000168022641F080510160006800F08050E5
:102FD0000090009847F200000095C4F200000168DC
:102FE00041F480410160006800F480400090009846
:102FF000012006904FF4803007904FF480000D9030
:1030000019200E904FF4A870CDE90F0604201190FE
:1030100020460C96FEF7B4FB10B172B6FEE700BF77
:103020000F20CDE901064FF4A05004904FF48050DA
:10303000059001A805210395FEF792FA10B172B62A
:10304000FEE700BF12B070BD4EF68850CEF2000011
:10305000016841F4700101607047000040F2943053
:10306000C2F20000FEF788BF40F2DC30C2F200007E
:10307000FEF782BF40F22440C2F20000FEF77CBFA0
:1030800010B540F6FF3E0368C4F2000E40F2004C5B
:103090007045C4F2010C25DCB0F1804F2FD040F216
:1030A0000042C4F20002904229D040F60002C4F26D
:1030B0000002904223D041F6FF72C4F20002904217
:1030C00027DC70453ADCB0F1804F5BD040F2004223
:1030D000C4F20002904255D040F60002C4F2000251
:1030E0004EE000BF40F60042C4F20002904206D01B
:1030F000604504D00022C4F201029042DBD14A684C
:1031000023F07003134341F6FF72C4F200029042B1
:10311000D7DD43F6FF72C4F20102904220DC42F296
:103120000002C4F2000290422CD00022C4F201023C
:10313000904227D0604525D028E000BF40F60042ED
:10314000C4F2000290421DD041F60002C4F2000217
:10315000904217D041F60042C4F2000210E000BFD6
:1031600044F20002C4F2010290420BD044F6000285
:10317000C4F20102904205D044F20042C4F20102BE
:10318000904203D1CA6823F44073134323F08002B2
:103190004B69D1F800E08C681A430260C46240F4C5
:1031A0008062C0F828E0624504BF0969016301211B
:1031B00041610169C90708BF10BD016921F0010122
:1031C000016110BD806B0021C185C184FFF762B829
:1031D000806B01684A6990F84130212B2DD112F0A3
:1031E00080022AD00021C184016851E8031F0268CF
:1031F00021F0C00142E80313DBB1016851E8031F6D
:10320000026821F0C00142E8031393B1016851E85C
:10321000031F026821F0C00142E803134BB10168AB
:1032200051E8031F026821F0C00142E80313002B9C
:10323000DAD1202180F841100168496990F84220D4
:10324000222A40F07D8011F0400179D00021C18513
:10325000016851E8031F026821F4907142E80313EA
:10326000BBB3016851E8031F026821F4907142E882
:10327000031373B3016851E8031F026821F49071CE
:1032800042E803132BB3016851E8031F026821F4DD
:10329000907142E80313002BDAD11AE0016851E87B
:1032A000051F026821F0010142E80513DBB1016846
:1032B00051E8051F026821F0010142E8051393B1AE
:1032C000016851E8051F026821F0010142E8051379
:1032D0004BB1016851E8051F026821F0010142E885
:1032E0000513002BDAD1016B012924D1016851E8C3
:1032F000031F026821F0100142E80313DBB10168EB
:1033000051E8031F026821F0100142E8031393B152
:10331000016851E8031F026821F0100142E803131D
:103320004BB1016851E8031F026821F0100142E827
:103330000313002BDAD1202180F842100021016311
:10334000416C41F010014164FEF7A4BF0168806B3D
:103350000968C90548BFFFF7D7BB0021C18400BF7A
:10336000016851E8051F026821F0800142E8051359
:1033700083B3016851E8051F026821F0800142E82B
:1033800005133BB3016851E8051F026821F0800175
:1033900042E80513F3B1016851E8051F026821F006
:1033A000800142E80513002BDAD113E0016851E8EF
:1033B000031F026841F0400142E80313002B08BFDD
:1033C0007047016851E8031F026841F0400142E87C
:1033D000031393B1016851E8031F026841F04001F3
:1033E00042E803134BB1016851E8031F026841F042
:1033F000400142E80313002BD8D17047806BFFF7E0
:1034000085BB000081B090F84210222921D1836849
:103410000246B3F5805F09D152F8281F52F8183CD4
:10342000002B63D003685B680AE000BF52F8281FD6
:1034300013B90369002BF5D003685B6803F07F03C1
:103440000B70116801311160C18D01390A04C18509
:1034500002D001B0704700BF0168CA6822F02002A4
:10346000CA60CA6822F48072CA604A6922F0010206
:103470004A61202180F8421000214163026B012A39
:103480003CD10163016851E8031F026821F010017B
:1034900042E80313DBB1016851E8031F026821F021
:1034A000100142E8031393B1016851E8031F026859
:1034B00021F0100142E803134BB1016851E8031FEA
:1034C000026821F0100142E80313002BDAD10168F1
:1034D0000A68D20606D5002200920A68009249685E
:1034E00000910099818D01B0FEF7D2BE026852684A
:1034F0006FF35F2221F8022B8162A5E701B0FFF78D
:10350000A3BA0000B0B50446006804F108030ECB6E
:103510000569194325F440552A4302616269E3694C
:103520001143C268194349F20C639A431143C160C5
:103530004169A26921F4407141F20043114340F412
:103540008062C4F201039A42416103D1FEF7CEF8D2
:1035500002E000BFFEF7B6F8E1694FF69C756368BC
:103560001922C0F6FF75B1F5004FA0FB02011FD173
:103570005A00DB0FFCF78EFE48F21F51C5F2EB112B
:10358000A0FB01235A0905F1805302FB03003223FB
:1035900003EBC000A0FB01014FF4F87000EA11102A
:1035A00000EB0210C1F34211084421688860B0BDED
:1035B0009A009B0FFCF76EFE48F21F51C5F2EB110B
:1035C000A0FB01235A0902FB0500322303EB001084
:1035D000A0FB0101F02000EA511000EB0210C1F342
:1035E0004311084421688860B0BD000040F26C407F
:1035F000C2F20000FEF750BE40F2B440C2F200003A
:10360000FEF74ABE2DE9F04F8CB040F2CC00C2F27A
:10361000000000F1080C00F118079CE83011C8CF39
:10362000426A40F2080919463146394611460A9263
:10363000426322462A46C2F200090696C662B0F8E4
:1036400048E0B0F84A60B0F84CA0B0F84E10D9F895
:1036500000200493836208970763C0E902A6C0E9CB
:1036600004E1059484610795C561CDF82480C0F814
:1036700020805245CDF82CC0C0F824C03CBF8260E9
:1036800092464746D9F808806746C2453CBFC0F815
:103690000880C246D9F80C30B3423CBFC3601E4616
:1036A000D9F814B05E453CBFC0F80CB05E46D9F8FE
:1036B0001870009377453CBF0761BE46D9F820C01B
:1036C0000297E6453CBFC0F810C0E646D9F8245042
:1036D0008D423CBF45612946D9F82C40A1423CBFF0
:1036E00044612146DDE9043701940AEB4A0403EB07
:1036F00047074AF6AB233C44CAF6AA23A4FB034778
:10370000D9F804404FEA970AB4EB970F039507DA0C
:10371000AAEB0407C7EBC737121B97FBF2F80BE0C5
:10372000AAEB0802C2EBC232A4EB080492FBF4F24B
:1037300047F6FF74A2EB0408DDE9065206EB4604E7
:1037400005EB42063444D9F81060A4FB0347B6EBFE
:10375000970F4FEA97041F46C0F8388008DA009A9E
:10376000A41BC4EBC434961B94FBF6F60BE000BF1D
:10377000A4EB0B04C4EBC434A6EB0B0694FBF6F4E9
:1037800047F6FF76A61BDDE908320EEB4E0403EB8D
:1037900042052C443B46A4FB0747D9F81C5048F28D
:1037A0000104CFF6FF74B5EB970F4FEA9707C66396
:1037B00006DA029A7F1B6743551B97FBF5F709E072
:1037C000A7EB0C077C43A5EB0C0794FBF7F747F638
:1037D000FF752F44DDE90A5201EB410105EB42057B
:1037E0002944A1FB0315D9F82810AB08B1EB950FBC
:1037F000076407DA039A5B1AC3EBC333511A93FBCE
:10380000F1F109E0019A9B1AC3EBC333891A93FBC8
:10381000F1F147F6FF73C91A40F23814C8F30725CF
:10382000C2F2000425605FFA88F5A561C6F307239C
:10383000C7F307256360F3B2A560FDB2C1F30722A9
:103840004FEA182C4FEA162EE3613B0A25620D0A57
:10385000E260CAB24164C0F85C8006664766816671
:10386000626280F8508080F851C080F8526080F821
:1038700053E080F8547080F8553080F8561080F886
:1038800057500CB0BDE8F08FF0B581B040F2004465
:10389000C4F2020420461021FDF798FD40F2CC0648
:1038A000C2F2000696F85810B0FA80F0400901F014
:1038B000FE01084486F8580020462021FDF786FDC9
:1038C00096F85810B0FA80F0400901F0FD0141EA85
:1038D0004000A4F5806586F8580028461021FDF7C1
:1038E00075FD96F85810B0FA80F0400901F0FB0120
:1038F00041EA800086F8580028462021FDF766FD41
:1039000096F85810B0FA80F0400901F0F70141EA4A
:10391000C00086F85800204602210227FDF756FD18
:1039200096F85910B0FA80F0400901F0FE01084401
:1039300086F8590020460121FDF748FD96F85910F8
:10394000B0FA80F0400901F0FD0141EA400086F83C
:10395000590004F580604FF48061FDF737FD96F85B
:103960005910B0FA80F0400901F0FB0141EA8000F3
:1039700086F8590028464FF40041FDF727FD96F8D8
:103980005910B0FA80F021F008027188400942EA2B
:10399000C000022986F859000AD0012904D059B97B
:1039A00000F0CF0006E000BF012161F3051001E047
:1039B00067F3051086F85900B188022908D001295B
:1039C00004D069B900F03F0008E000BF012103E026
:1039D0004FF6FE71C0F2FF3161F39F1086F8590077
:1039E00001B0F0BDFEE7000010B540F2CC0240F29D
:1039F0000804C2F20002C2F20004B2F84C102068BF
:103A0000B2F84EC0884202F10800B2F848E0B2F8BD
:103A10004A3080E80A40C2F814C038BF2160A0686C
:103A2000884288BFA160E068984238BFE36060695F
:103A3000984288BF6361A069704538BFC4F818E038
:103A4000206A704588BFC4F820E0606A604538BFCE
:103A5000C4F824C0E06A604588BFC4F82CC010BD1B
:103A600070B540F2CC02C2F200021078002840F299
:103A70000800C2F2000017D0B2F84810C369046908
:103A80001944B2F84A304568866A4FEA510CE11889
:103A9000B2F84C30B2F84E204FEA510EE9183244D9
:103AA000490853080AE000BFB2F848C0B2F84AE03B
:103AB000B2F84C10B2F84E3001241470C0F81CC09B
:103AC000C0F810E04160836270BD0000FDF79EFC0D
:103AD000FFF764FAFFF7CCF8FFF784F8FFF768F90F
:103AE000FFF718F8FFF714FAFFF79CF9FFF72EFA23
:103AF000FFF7D4F940F26C14C2F200042046FCF740
:103B0000A1FF20461421FCF71DFF40F29430C2F2C1
:103B10000000FEF709F940F2DC30C2F20000FEF7C7
:103B200003F900BFFEE70000F0B581B007462B2087
:103B3000012A38701DDBF81C0024002343F0010526
:103B40000E5DEDB29542065513D243F002044E5D70
:103B5000E4B2944246550CD243F003050E5DEDB23B
:103B60009542065505D204334E5DDCB2944246556B
:103B7000E4D308461146FCF7B1FC40F26811C2F2EA
:103B8000000109787870B220B970787301B0F0BD87
:103B9000F1EE100A4FF6FF71C0F2C03120EA0100C9
:103BA00040F04070E1EE100A704700000000000095
:103BB00000000102030406070809000000000102DA
:103BC000030400061016000610160000F03B000863
:103BD0000000002040000000EC010008303C00081C
:103BE00040000020C00A00000C0200080000000095
:103BF00001000000100000000008000000080000A4
:103C00000008000000080000000800000008000094
:103C10000008000000080000000800000008000084
:103C200000080000000800000024F400000000006C
:040000050800018965
:00000001FF
