:020000040800F2
:100000006809002029020008532100085D1E00082D
:1000100051210008D505000835280008000000001F
:100020000000000000000000000000005721000850
:10003000A906000800000000552100085921000809
:10004000430200084302000843020008430200087C
:10005000430200084302000843020008430200086C
:10006000430200084302000843020008430200085C
:10007000430200084302000843020008430200084C
:10008000430200084302000843020008430200083C
:10009000430200084302000843020008AB060008C0
:1000A000430200084302000843020008430200081C
:1000B000012200084302000843020008430200082E
:1000C00043020008430200084302000843020008FC
:1000D00043020008430200084302000843020008EC
:1000E00043020008430200084302000843020008DC
:1000F00043020008430200084302000843020008CC
:1001000043020008430200084302000843020008BB
:1001100043020008430200084302000843020008AB
:10012000F9050008430200084302000843020008E2
:100130004302000800000000000000004302000825
:10014000430200084302000843020008430200087B
:10015000430200084302000843020008430200086B
:10016000430200084302000843020008430200085B
:1001700043020008430200080000000000000000E5
:10018000430200084302000800F002F800F03CF8C7
:100190000AA090E8000C82448344AAF10107DA45E2
:1001A00001D100F031F8AFF2090EBAE80F0013F0F8
:1001B000010F18BFFB1A43F0010318472428000061
:1001C00044280000103A24BF78C878C1FAD85207F2
:1001D00024BF30C830C144BF04680C6070470000C1
:1001E0000023002400250026103A28BF78C1FBD840
:1001F000520728BF30C148BF0B6070471FB502F0DF
:10020000D9FB1FBD10B510BD00F0CFF81146FFF7A8
:10021000F5FF02F071FB00F0EDF803B4FFF7F2FF19
:1002200003BC00F0F5F80000094880470948004782
:10023000FEE7FEE7FEE7FEE7FEE7FEE7FEE7FEE796
:10024000FEE7FEE704480549054A064B70470000F3
:10025000F1210008890100086803002068090020D6
:10026000680500206805002053EA020C00F0698050
:100270002DE9F04B4FF00006002B1FBFB3FA83F5BA
:1002800003FA05F424FA05F65E4012BF1643B2FAEB
:1002900082F502FA05F4C5F120051EBF22FA05FC1D
:1002A00044EA0C04203556EA044C4FEA144418BFC3
:1002B000641C4FF000084FF00009904271EB030CF2
:1002C00039D3002919BFB1FA81F701FA07F6B0FA5C
:1002D00080F700FA07F6C7F120071EBF20FA07FCD7
:1002E00046EA0C062037B6FBF4FCA7EB0507103FE7
:1002F00007F01F0BCBF120060CFA0BFB2CFA06F6CD
:1003000044BFB3460026202FA4BF5E464FF0000B2B
:100310005BEA060C08BF4FF0010B19EB0B09ABFBB6
:10032000027C48EB0608C01B06FB02CC0BFB03CC8F
:1003300071EB0C01C1E70B46024641464846BDE859
:10034000F08B13B54FF000004FF00001AFF30080C9
:10035000BDE81C4070474FF0000200B513469446BC
:100360009646203922BFA0E80C50A0E80C50B1F10D
:100370002001BFF4F7AF090728BFA0E80C5048BF21
:100380000CC05DF804EB890028BF40F8042B08BFBF
:10039000704748BF20F8022B11F0804F18BF00F8BB
:1003A000012B7047704770477047754600F02CF876
:1003B000AE4605006946534620F00700854618B052
:1003C00020B5FFF73FFFBDE820404FF000064FF09B
:1003D00000074FF000084FF0000B21F00701AC467A
:1003E000ACE8C009ACE8C009ACE8C009ACE8C00999
:1003F0008D46704710B50446AFF300802046BDE837
:100400001040FFF70ABF00000048704708030020B3
:1004100001491820ABBEFEE726000200704710B568
:100420000146806B026C12F0500F05D0026CD206B0
:1004300026D500F0EFF910BD016C41F400710164A4
:1004400001688A6812F0405F17D1027EAAB9CA6AB1
:1004500012F4700F02D08A6852050ED44A6822F056
:1004600020024A60016C21F480710164016CC904AE
:1004700003D4016C41F00101016400F0C9F910BD21
:10048000806BC26CBDE810400846104710B5806B09
:1004900040210164416C41F00401416400F0BAF96B
:1004A00010BD10B5806B00F0B4F910BD464910B511
:1004B0004A6822F440324A604A6843681A434A60F4
:1004C00001684A6822F480724A6001684A680369D8
:1004D00042EA03224A6001684A6822F040724A6098
:1004E00001684A6883681A434A6001688A6822F48E
:1004F00000628A6001688A68C3681A438A60816AF8
:100500006FF07062D14201688A6822F070628A607E
:1005100001688A680CD0836A1A438A6001688A6815
:1005200022F040528A6001688A68C36A1A4301E077
:1005300022F040528A6001688A6822F002028A60D2
:1005400001688A68037E42EA43028A6090F82010BC
:10055000002901684A680FD042F400624A600168CD
:100560004A6822F460424A6001684A68174C436A4C
:1005700004EB43331A4301E022F400624A6001684D
:10058000CA6A22F47002CA620168CA6A838B104C7C
:1005900004EB03531A43CA6201688A6822F40072AA
:1005A0008A6001688A6890F8303042EA43228A60A3
:1005B00001688A6822F480628A6001688A684069FA
:1005C00042EA8020886010BD0023014000E0FFFF68
:1005D0000000F0FFFEE7F0B500250E4607462C466A
:1005E00005E0385D02F038F94540641CE4B2B442DD
:1005F000F7DB2846F0BD0000014800F001BB000019
:10060000CC00002001681823CAB2103AB2FBF3F202
:10061000054B6FF30901032A9B5CC36500D9091DD3
:100620008165084670470000BE29000810B50146E4
:1006300000208B698A6A4FF0C07453B1B3F5005F34
:1006400015D072B1012A0CD0022A0AD0032A09D18E
:1006500004E01AB1012A06D0022A03D1C96AC901ED
:1006600000D5012010BDC96AA142FAD010BD002AF0
:10067000F7D0012AF2D0022AF3D0032AF3D010BD1A
:1006800030B50468256825F480252560046863601A
:100690008368402B036803D099600068C26030BD56
:1006A0009A600068C16030BD704710B5802000F0CE
:1006B00045FCBDE810404FF4007000F03FBC72B63E
:1006C000FEE7000078B50024009490F83C20012A51
:1006D00019D0012280F83C200A6807230568092AFE
:1006E00013D9EE680A3A02EB420293409E43EE6051
:1006F0000B788A680A3B03EB43039A400368DD6882
:100700002A43DA6010E0022078BD2E6902EB420233
:1007100093409E432E610B788A6803EB43039A4013
:1007200003681D692A431A614A681F23072A13D2E6
:1007300005686E6B521E02EB820293409E436E630D
:100740000B790A885B1E92B203EB83039A4003681D
:100750005D6B2A435A6327E005680D2A12D22E6B7F
:10076000D21F02EB820293409E432E630B790A88CC
:10077000DB1F92B203EB83039A4003681D6B2A438D
:100780001A6311E0EE6A0D3A02EB820293409E4337
:10079000EE620B790A880D3B92B203EB83039A4019
:1007A0000368DD6A2A43DA62164B0568144A9D42E3
:1007B00006D10D68122D03D1556845F480055560AA
:1007C00005689D4218D10B68102B01D0112B13D155
:1007D000536843F400035360096810290CD10A4997
:1007E0000A4A0968B1FBF2F101EB8101490000E01E
:1007F000491E00910029FBD180F83C40002078BDC3
:1008000000230140002001407000002040420F0002
:1008100070477047704770B504004FF0000503D073
:10082000206C002610B107E0012070BD204600F0CA
:100830001DF8666484F83C60206CC00610D4206CFF
:1008400020F4885040F0020020642046FFF72EFE7E
:100850006664206C20F0020040F00100206400E09B
:10086000012584F83C60284670BD000070B586B054
:10087000064614216846FFF76EFD1D493068884220
:1008800033D11C480025016841F480710160006883
:1008900000F48070059017481438016841F0040195
:1008A00001600068694600F0040005900F20009088
:1008B0000320CDE90105104800F04CFB104C0F4817
:1008C000C4E900050015A560C4E90350400060615B
:1008D0008000C4E9060525622046656200F060FAE2
:1008E00008B1FFF7ECFEB463A66306B070BD00006C
:1008F00000200140443802400008024010640240D9
:10090000CC0000202DE9F041044600680D468168C6
:100910004FF0000749050BD58068C00508D5206C4D
:1009200040F02000206484F83C700120BDE8F08194
:1009300000F01AFC064613E0681C11D025B100F047
:1009400013FC801BA8420BD920680068800707D4DD
:10095000206C40F00400206484F83C700320E5E73C
:10096000206800688007E7D521686FF012000860F2
:10097000206C40F4007020642068816811F0405FB2
:1009800013D1217E89B9C16A11F4700F02D0806839
:1009900040050AD4206C20F480702064206CC004D0
:1009A00003D4206C40F0010020640020BEE700006A
:1009B00018B50021009190F83C20012A07D00122AF
:1009C00080F83C2002689368DB0702D011E0022027
:1009D00018BD936843F0010393602E4A2E4B1268B2
:1009E000B2FBF3F202EB420200E0521E0092002A38
:1009F000FBD102689368DB0742D0036C40F20164CC
:100A0000A34343F48073036453685B0505D5036C0B
:100A100023F4005343F480530364036CDB0404D5D4
:100A2000436C23F00603436400E0416480F83C100B
:100A30001A496FF02203136049680068CA06184912
:100A400006D0884224D1816811F0405F13D01FE0A6
:100A50008842F8D0134A904203D1D1F80423D20639
:100A6000F1D0114A904213D1D1F8041301F01F01C3
:100A70001029E8D30CE0816841F08041816007E0F3
:100A8000016C41F010010164416C41F001014164CD
:100A9000002018BD7000002040420F0000230140DC
:100AA000002001400021014000220140F8B5044629
:100AB00000200E46009094F83C10012907D0012137
:100AC00084F83C1021688B68DB0702D011E002201B
:100AD000F8BD8B6843F001038B604049404B0968C7
:100AE000B1FBF3F101EB410100E0491E0091002947
:100AF000FBD121688B68DB0503D58B6823F48073F9
:100B00008B6021688B68DB075DD0236C40F2016548
:100B1000AB4343F4807323644968490505D5216CD0
:100B200021F4005141F480512164216CC90404D5A1
:100B3000616C21F00601616400E0606484F83C00AF
:100B4000A16B2948274DC863A16B28480864A16B95
:100B50002748C86421686FF0220008602068416857
:100B600041F0806141602068816841F4807181605A
:100B70002168134632464C31A06B00F07BF968685F
:100B80001C49C006206806D0884224D1816811F033
:100B9000405F13D01FE08842F8D0174A904203D13B
:100BA000D1F80423D206F1D0144A904213D1D1F8DF
:100BB000041301F01F011029E8D30CE0816841F013
:100BC0008041816007E0206C40F010002064606C80
:100BD00040F0010060640020F8BD000070000020BB
:100BE00040420F00002301401F040008A304000836
:100BF0008D04000800200140002101400022014036
:100C00002DE9F84304464FF00009CDF80090634801
:100C10004FF41651A56D0068B0FBF1F72E6894F8FB
:100C20005C10082000FA01F131420FD021680A68F7
:100C300052070BD50A6822F004020A6094F85C108F
:100C40008840A860606D40F00100606594F85C1019
:100C50004FF0010808FA01F0304208D021684969D4
:100C6000090604D5A860606D40F00200606594F844
:100C70005C1004208840304208D021680968890748
:100C800004D5A860606D40F00400606594F85C10C5
:100C900010208840304218D021680968090714D50F
:100CA000A86020680168490304D50068000308D5DE
:100CB000A16C07E00168C90503D4016821F00801AF
:100CC0000160216C09B12046884794F85C1020200F
:100CD0008840304231D021680968C9062DD5A86006
:100CE00094F8350005282068016806D0490347D5E7
:100CF000006800031DD4616C1CE021F01601016046
:100D00002068416921F080014161206C08B9A06C24
:100D100020B12068016821F00801016094F85C109E
:100D20003F208840A86084F8358084F83490216D95
:100D30001FE0E16B09B120468847606D00282BD089
:100D4000606DC00714D0052084F835002068016864
:100D500021F0010101600098401C0090B84203D8C6
:100D600020680068C007F6D184F8358084F8349094
:100D7000E16C002910D001B02046BDE8F0430847DF
:100D80000168C905D5D4016821F01001016084F81B
:100D9000358084F83490CCE7BDE8F88370000020FB
:100DA0002DE9F041044600F0DFF906465CB102206F
:100DB00084F83500002584F834502068016821F05B
:100DC000010101600DE00120BDE8F08100F0CCF9E7
:100DD000801B052805D920206065032084F8350094
:100DE000F2E720680068C007F0D122681168204847
:100DF0000140D4E901031843D4E9033633431843CF
:100E000063691843A3691843E3691843236A1843C5
:100E10000843616A042903D1D4E90B131943084339
:100E2000106020684069666A20F0070130460E4372
:100E3000012704280CD1A06A0643E06A40B120468D
:100E4000FFF7F4FB20B14020606584F83570BAE705
:100E5000206846612046FFF7D5FB94F85C203F21CF
:100E600091408160656584F835700020ACE7000032
:100E70003F8010F02DE9F0410446866D90F8340073
:100E8000002501280DD0012084F8340094F8357035
:100E90000020012F07D084F8340002252846BDE841
:100EA000F0810220FBE7022784F835706065204658
:100EB000FFF7E6FB94F85C103F208840B0602068A4
:100EC000016841F016010160206C20B120680168C2
:100ED00041F0080101602068016841F001010160F2
:100EE000DCE7000070B5044600F03EF90546601CE2
:100EF00002D004480078044400F036F9401BA042B8
:100F0000FAD370BD1C00002070B50A4A01250A4CB6
:100F100002265115802802D0884207D14110104680
:100F200000F010F918B1012800D1668070BD65800D
:100F300070BD00000008024028000020044910B5E0
:100F40000A68024202D00860FFF7DEFF10BD000011
:100F5000143C01402DE9F84FDFF8BCA10022012527
:100F600003264FF00F090AF1040BAAF1040E00BF8B
:100F70000B6805FA02F42340A34270D10F7907F001
:100F80000307012F01D0022F16D187684FEA4208CC
:100F900006FA08FC27EA0C07D1F80CC00CFA08FC8A
:100FA0004CEA070CC0F808C04768A7430C79C4F3A3
:100FB000001494403C4344600C79E443A4070AD0F5
:100FC000C4684FEA420C06FA0CF7BC438F6807FA74
:100FD0000CF72743C7600C7904F00304022C12D1EC
:100FE000D40800EB840CDCF820405707FF0E09FA08
:100FF00007F824EA0804D1F8108008FA07F848EA4C
:101000000408CCF8208004684FEA420C06FA0CF77A
:10101000BC430F7907F0030707FA0CF72743076073
:101020004C6814F4403F70D03C4C276847F480472C
:101030002760246822F0030704F480440094384CAD
:1010400007EB040CDCF8084897074FEA177809FA11
:1010500008F7BC43334FB84202D1002724E054E0E4
:10106000314FB84201D101271EE0304FB84201D1C3
:10107000022719E02E4FB84201D1032714E02D4F6B
:10108000B84201D104270FE02B4FB84201D1052708
:101090000AE02A4FB84201D1062705E0284FB8429E
:1010A00001D1072700E0082707FA08F72743CCF803
:1010B0000878DAF800405746D1F804C09C435FEA4C
:1010C000CC2C00D51C433C60DBF800405F46D1F8D7
:1010D00004C09C435FEA8C2C00D51C433C60DEF8C6
:1010E00000407746D1F804C09C435FEA8C3C00D5B1
:1010F0001C433C60084F083F3C68D1F804C09C4347
:101100005FEACC3C00D51C433C60521C102AFFF423
:101110002FAFBDE8F88F0000083C01404438024082
:10112000003001400000024000040240000802407C
:10113000000C02400010024000140240001802405F
:10114000001C02400069084000D00120704742693D
:1011500021EA02030A4043EA0241816170470AB171
:10116000816170470904FBE701488068704700000F
:101170001C00002002488168027811448160704799
:101180001C0000200B4810B5016841F4007101609B
:10119000016841F480610160016841F4807101607F
:1011A000032000F06FF80F2000F006F800F024F89C
:1011B000002010BD003C024070B50D4D04464FF4B8
:1011C0007A712878B1FBF0F00A490968B1FBF0F0B8
:1011D00000F00CFB48B9102C07D200222146501E0B
:1011E00000F030F800206C6070BD012070BD000080
:1011F0001C000020700000200A4808B5016841F476
:1012000080410160006800F4804000900548001FA4
:10121000016841F080510160006800F0805000904A
:1012200008BD000044380240002809DB00F01F021E
:10123000012191404009800000F1E020C0F8001138
:1012400070470000F0B40E4B1B680C46C3F302233A
:10125000C3F10705042D00D90425191D072901D262
:10126000002300E0DB1E012606FA05F1491E21409D
:1012700099409E40761E16403143F0BC01F0DBBA27
:101280000CED00E0064900F0070208684FF6FF0386
:10129000184040EA0220034A1043086070470000EB
:1012A0000CED00E00000FA052DE9F0470E460500C0
:1012B00065D0DFF81481D8F80000F7B200F007001D
:1012C000B04207D288F80070D8F8000000F007009C
:1012D000B04254D128683D4C810712D5400703D550
:1012E000206840F4E05020602878000703D520688B
:1012F00040F4604020602068A96820F0F0000843B6
:1013000020602878C0072DD0304968680839012846
:1013100012D0022813D0032811D0096889070029A8
:101320002DDA216821F0030101432160FFF71CFF42
:10133000814641F2883A0EE009688903EFE70968BF
:101340008901ECE7FFF710FFA0EB0901514502D935
:101350000320BDE8F0872068696800F00C00B0EB5E
:10136000810FEFD1D8F80010404601F00701B142DB
:1013700007D90770006800F00700B04201D00120D3
:10138000E7E72878400705D52068E96820F4E050B1
:10139000084320602878000706D52068296920F4D2
:1013A000604040EAC100206000F038F82168084A37
:1013B000C1F30311515CC840064908600648006843
:1013C000FFF7FAFE0020C4E7003C02400838024064
:1013D000C6290008700000202000002004480549AC
:1013E00000680968044AC1F38221515CC840704713
:1013F0007000002008380240D6290008044805493A
:1014000000680968044AC1F34231515CC840704722
:101410007000002008380240D6290008154810B591
:10142000006810F00C02144813D01449042A0FD09D
:10143000082A0ED10F4C241F2268236802F03F02B5
:101440005B0207D52068C0F38810A0FB010106E00D
:10145000084610BD2168C1F38811A1FB00010023DB
:10146000FEF702FF2168C1F30141491C4900B0FBAE
:10147000F1F010BD083802400024F40040787D01EE
:101480002DE9F84F04006ED02078DFF84C93C007A8
:10149000A9F104054AD009F104000168C1F38101F2
:1014A000012908D00068C0F3810002280AD1D9F8C8
:1014B0000000400206D52868800337D56068002800
:1014C000E1D033E06068B0F5803F10D0B0F5A02FD8
:1014D000286810D020F480302860286820F480200C
:1014E00028606068A8B1FFF73FFE06460DE0286857
:1014F00040F48030F4E740F480202860F7E700BF34
:10150000FFF732FE801B642873D828688003F7D564
:101510000CE0FFF729FE064605E000BFFFF724FEBA
:10152000801B6428F0D828688003F7D42078DFF87F
:10153000AC8280074FF0000A3ED5A748001D016825
:1015400011F00C0F08D00068C0F3810002280BD105
:10155000D9F80000400207D42868800716D5E06853
:10156000012800D112E033E1E068B8B10120C8F8E9
:101570000000FFF7F9FD064605E000BFFFF7F4FDA8
:10158000801B0228C0D828688007F7D52868216901
:1015900020F0F80040EAC10028600DE0C8F800A083
:1015A000FFF7E2FD064604E0FFF7DEFD801B0228A0
:1015B0001FD828688007F7D42078000722D5864FE7
:1015C00087486169703771B101210160FFF7CCFD77
:1015D000064604E0FFF7C8FD801B022809D83868DA
:1015E0008007F7D50EE0C0F800A0FFF7BDFD064666
:1015F00005E082E0FFF7B8FD801B02287DD838683F
:101600008007F7D42078400768D5DFF8CCB10027F1
:101610000BF13C0BDBF80000C0000BD4DBF8001032
:1016200041F08051CBF80010DBF80000012700F0FA
:10163000805000906B4E3068C00510D4306840F484
:1016400080703060FFF790FD009005E0FFF78CFDA3
:101650000099401A022850D83068C005F6D55E4E71
:10166000A0686C3601280FD00528306810D020F013
:1016700001003060306820F004003060A068B8B12C
:10168000FFF772FD00900FE0306840F00100F4E7D2
:1016900040F004003060F7E7FFF766FD0099411A5B
:1016A00041F28830814266D830688007F4D50EE078
:1016B000FFF75AFD009007E0FFF756FD0099411A29
:1016C00041F28830814256D830688007F4D42FB177
:1016D000DBF8001021F08051CBF80010A069C8B3EE
:1016E0003D49091D0968C1F3810102294AD0022838
:1016F000504607D0C8F8600000E03CE0FFF734FD3A
:1017000004463BE04746C8F86000FFF72DFD06465B
:1017100005E000BFFFF728FD801B02282BD82868B2
:101720008001F7D4D4E907010843A16A2E4A490889
:1017300002EB0141626A41EA8211084394F82C10DD
:1017400040EA0161C9F8001001203866FFF70CFD7E
:10175000044606E03EE000BFFFF706FD001B02283E
:1017600009D828688001F7D534E000BFFFF7FCFCFA
:10177000001B022802D90320BDE8F88F28688001E9
:10178000F4D427E00128F7D0D9F80000E26900F48A
:10179000800191421CD1226A00F03F01914217D191
:1017A00047F6C071626A0140B1EB821F10D1A26A94
:1017B0004FF0FF3300F4403103EB5202B1EB024F24
:1017C00006D194F82C1000F07060B0EB016F01D0DE
:1017D0000120D1E70020CFE7043802400000474253
:1017E000800E4742007000400000FFFF10B5401E11
:1017F000B0F1807F01D3012010BD4FF0E024606183
:101800000F21601701F017F80020A0610720206168
:10181000002010BD7047704770B590F83C20012A39
:1018200032D0012480F83C40022280F83D20036839
:101830005A689D6822F070060A6832435A60134B5A
:1018400002689A4214D0B2F1804F11D0104B9A42E4
:101850000ED0104B9A420BD00F4B9A4208D00F4B30
:101860009A4205D00E4B9A4202D00E4B9A4204D1B6
:10187000496825F080031943916080F83D400021BC
:1018800080F83C10084670BD022070BD0000014089
:101890000004004000080040000C0040000401402B
:1018A000004001400018004010B5040003D094F837
:1018B0003D0010B107E0012010BD002084F83C007D
:1018C000204600F01FF8022084F83D00211D20680A
:1018D00000F09CFC012084F8460084F83E0084F867
:1018E0003F0084F8400084F8410084F8420084F806
:1018F000430084F8440084F8450084F83D0000204B
:1019000010BD000008B50068B0F1804F12D10A4840
:10191000016841F0010101600068002200F001004F
:10192000009011461C20FFF78DFCBDE808401C20EC
:10193000FFF77ABC08BD00004038024090F83D1027
:10194000012901D001207047022180F83D10016873
:10195000CA6842F00102CA6000681149884214D086
:10196000B0F1804F11D00F4988420ED00E49884205
:101970000BD00E49884208D00D49884205D00D4948
:10198000884202D00C49884204D1816801F00701E5
:10199000062903D0016841F0010101600020704771
:1019A000000001400004004000080040000C00401E
:1019B00000040140004001400018004070B504469A
:1019C00090F83C000025012817D0012684F83C60DF
:1019D000022084F83D002068826822F0770222F419
:1019E0007F4282600868502838D00DDC20284FD014
:1019F00005DC90B3102811D14AE0022070BD3028D8
:101A000046D040280AD13BE060282FD070280DD066
:101A1000B0F5805F03D0B0F5005F12D0012584F8E7
:101A20003D60002084F83C00284670BDCB68D1E9B9
:101A30000121206800F056FC2068816841F07701A0
:101A400009E0CB68D1E90121206800F04BFC206857
:101A5000816841F480418160E1E719E0CA68496822
:101A6000206800F051FC5021206806E0CA684968EF
:101A7000206800F05AFC6021206800F03DFCCEE7B1
:101A8000CA684968206800F03FFC40212068F4E7FC
:101A9000226801461046F0E770472DE9F041044600
:101AA0000068C66805694FF00007A90713D5B1079C
:101AB00011D5F91E01610120207720688069800717
:101AC000204602D0FFF7E8FF04E000F07EF8204651
:101AD00000F07CF82777680716D5700714D52168C1
:101AE0006FF004000861022020772068806910F4FC
:101AF000407F204602D0FFF7CFFF04E000F065F8FA
:101B0000204600F063F82777280715D5300713D54E
:101B100021686FF008000861042020772068C06900
:101B20008007204602D0FFF7B7FF04E000F04DF831
:101B3000204600F04BF82777E80616D5F00614D5B6
:101B400021686FF010000861082020772068C069C4
:101B500010F4407F204602D0FFF79EFF04E000F023
:101B600034F8204600F032F82777E80708D0F0076D
:101B700006D021686FF001000861204600F028F8C7
:101B8000280608D5300606D521686FF08000086168
:101B90002046FFF73FFE680608D5700606D5216887
:101BA0006FF040000861204600F072F8A8060AD5E0
:101BB000B00608D521686FF0200008612046BDE816
:101BC000F041FFF728BEBDE8F08170477047000084
:101BD00010B5264900680968884245D1202124486B
:101BE000FFF7B0FA234CA0612348017A21700179F4
:101BF000427901EB0221A181407A607000F052FD30
:101C000000F0ACFC2069411C2161B0F57A7F05DB56
:101C100001211A48FFF79BFA002020613022184961
:101C20001848FEF743FF0B221349174800F0ACFE9B
:101C300015480D220178A1704178E17081782171F9
:101C4000C17861710179A1714179E1718179217264
:101C5000C1796172017AA172407AE072BDE81040E8
:101C600009490A4800F0BCB810BD00002C01002052
:101C700000040240000000209C02002000000240FE
:101C8000A8020020840000207400002074010020BD
:101C90007047704770B5040004D094F841000025E7
:101CA00010B106E0012070BD84F84050204600F0DD
:101CB00023F8242084F841002068C16821F40051F1
:101CC000C160204600F0C4FB2068016921F4904106
:101CD00001612068416921F02A0141612068C168E1
:101CE00041F40051C1606564202084F8410084F80B
:101CF00042006563002070BDF0B587B00446142132
:101D00006846FEF728FB304B276800222F49022443
:101D1000032507262E489F4219D12C4B14331F68E8
:101D200047F010071F601B6803F0100305930B6852
:101D300043F002030B60096802AB01F00201059158
:101D4000C021CDE9001483E8640069461BE01F4B05
:101D5000DFF880C01033674519D1186840F40030AF
:101D60001860186800F400300590086840F0010021
:101D700008600868694600F0010005900C20CDE974
:101D8000000415481CE0FFF7E5F807B0F0BDDFF8E8
:101D90004CC06745F9D11F6847F480271F601B6856
:101DA00003F4802305930B6843F002030B6009687A
:101DB00001F0020105914FF44061CDE9001469463C
:101DC00002AF87E86400DEE70010014030380240CF
:101DD000000402400044004000000240004800406F
:101DE00070B5044690F84100202801D0022070BD53
:101DF00049B342B32162A284E284002060642123BB
:101E000084F84130A56B114BEB63A56B104B2B6431
:101E1000A56B104BEB64A36B1865256813462A1D50
:101E2000A06BFFF727F821686FF04000086020687A
:101E3000143050E8001F41F0800140E80012002AF1
:101E4000F5D1002070BD012070BD0000992300086D
:101E5000DB2300084F23000870477047FEE70000AF
:101E60007FB500212648009101910291234A0391F8
:101E7000026001244FF480320461C0E9012104763C
:101E800080F820101F4AC0E90A210425C561C160FD
:101E900080F830404461FEF7BEFC08B1FEF70FFC4D
:101EA0000A20CDE90004694615480294FEF70AFCB1
:101EB00008B1FEF704FC0B20009002200190694657
:101EC0000F48FEF7FFFB08B1FEF7F9FB0C2000906E
:101ED0000320019069460A48FEF7F4FB08B1FEF7BB
:101EE000EEFB0D20CDE9000569460548FEF7EAFB4B
:101EF000002801D0FEF7E3FB7FBD00000020014079
:101F0000840000200100000F094808B5016841F471
:101F1000800101600068002200F4800000901146FA
:101F20003820FFF78FF9BDE808403820FFF77CB96B
:101F30003038024030B587B014216846FEF70BFAFE
:101F400039480024016841F080010160016801F016
:101F500080010591016841F004010160016801F010
:101F600004010591016841F001010160016801F07F
:101F700001010591016841F002010160016801F071
:101F800002010591016841F0080101600068274DD8
:101F900000F008000590002203212846FFF7DFF833
:101FA000032000900120CDE90104694628460394EE
:101FB000FEF7D0FF41F6F070CDE9000469462846EF
:101FC0000294FEF7C7FF41F67050CDE90004184DAA
:101FD000694628460294FEF7BDFF4EF23B00CDE96C
:101FE0000004694613480294FEF7B4FF4FF42070D2
:101FF00000904FF48810CDE9010469462846FEF7A9
:10200000A9FF0420CDE9000469460B480294FEF7BD
:10201000A1FF002211461720FFF714F91720FFF740
:1020200003F907B030BD0000303802400000024024
:102030000008024000040240000C024010B586B0C7
:1020400000241648009401940294039404944FF0E1
:10205000804105940160A721C0E9011440F2E731F5
:10206000C0E903148461FFF71FFC08B1FEF727FBEA
:102070004FF48050009069460848FFF79FFC08B174
:10208000FEF71DFB049404A904480594FFF7C4FB64
:10209000002801D0FEF713FB06B010BD2C01002074
:1020A0000E4810B50C4901604FF4165141604FF4D1
:1020B0008051816000214FF48062C0E903120C223C
:1020C000C0E90521C161FFF7E5FD002803D0BDE8A7
:1020D0001040FEF7F4BA10BD00100140740100205A
:1020E0000C4810B50A4901604FF4E131416000210C
:1020F00081600C22C160C0E904128161C161FFF7F7
:10210000C9FD002803D0BDE81040FEF7D8BA10BDC5
:1021100000440040BC0100200C4810B50A49016091
:102120004FF4E1314160002181600C22C160C0E9BF
:1021300004128161C161FFF7ADFD002803D0BDE845
:102140001040FEF7BCBA10BD004800400402002059
:10215000FEE7FEE770477047FFF70CB830B593B065
:1021600030216846FEF7F7F814210CA8FEF7F3F8C3
:102170001D480025016841F080510160006800F0B1
:10218000805011901948016841F480410160006855
:10219000022400F480401190012003901920049043
:1021A000009406940820CDE90750A820CDE9090441
:1021B00004200B906846FFF763F908B172B6FEE79A
:1021C0000CA90F2081E831004FF4A0500F904FF47C
:1021D0008050109005210CA8FFF766F8002801D068
:1021E00072B6FEE713B030BD4038024000700040C8
:1021F0000248016841F470010160704788ED00E019
:102200000148FFF74ABC00002C010020F0B502682D
:10221000294C2A4D2A4E2B4F2B4B4FF0804CA0427D
:1022200009D0604507D0A84205D0B04203D0B842DB
:1022300001D0984204D122F0700E4A6842EA0E02A0
:10224000A0421BD0604519D0A84217D0B04215D08B
:10225000B84213D0984211D01C4DA8420ED01C4D4C
:10226000A8420BD01B4DA84208D01B4DA84205D058
:102270001A4DA84202D01A4DA84203D122F440754B
:10228000CA682A434D6922F080022A4302608A68A4
:10229000C2620A688262A04201D0984201D10969F3
:1022A0000163012141610169C90703D0016921F07E
:1022B00001010161F0BD0000000001400004004088
:1022C00000080040000C00400004014000400140B4
:1022D000004401400048014000180040001C00403C
:1022E0000020004010B5846842EA032224F47F44B1
:1022F0000A432243826010BD826822F070020A43C2
:1023000042F007018160704710B5036A046A24F047
:1023100001040462846924F0F00444EA021423F006
:102320000A020A438461026210BD10B5036A046A9E
:1023300024F010040462846923F0A00324F47044A0
:1023400044EA023243EA01118261016210BD70B5B4
:10235000846B2068406994F84110C0F3C0100025D8
:10236000212904D118B1E584204600F062F82068E4
:10237000406994F84210C0F38010222904D118B1AA
:10238000E585204600F02EF8606C40F01000606497
:102390002046FFF77EFC70BD10B50146806B0968D2
:1023A0000968C90516D40021C1840168143151E8B7
:1023B000002F22F0800241E80023002BF5D10168B4
:1023C0000C3151E8002F42F0400241E80023002B7D
:1023D000F5D110BDFFF740FD10BD10B5806BFFF7C4
:1023E0003CFD10BD01680C3151E8002F22F49072C1
:1023F00041E80023002BF5D10168143151E8002F8A
:1024000022F0010241E80023002BF5D1016B0129E4
:1024100009D101680C3151E8002F22F0100241E887
:102420000023002BF5D1202180F842100021016308
:10243000704701680C3151E8002F22F0C00241E8DA
:102440000023002BF5D1202180F8411070470000B7
:1024500070B5044600680169E26821F440511143F7
:1024600001612169A068E269084361691143084379
:102470002168CA6849F20C639A430243CA60206823
:102480004169A26921F440711143416131492068D9
:10249000884202D03049884202D1FEF7AFFF01E006
:1024A000FEF79CFFE2690023192164253226B2F56C
:1024B000004F626828D0A0FB0101930F9200FDF746
:1024C000D3FE0146B0FBF5F06FF01802504301EB6C
:1024D000800006EB0010B0FBF5F000F0F002B1FB5D
:1024E000F5F002EB0012B1FBF5F06FF01803584362
:1024F00001EB800006EB0010B0FBF5F000F00F00E0
:1025000021681044886070BDA0FB010192185B41F6
:10251000FDF7AAFE0146B0FBF5F00201B1FBF5F0B4
:102520006FF01803584301EB800006EBC000B0FBCE
:10253000F5F000F0F80002EB4002B1FBF5F0584373
:1025400001EB800006EBC000B0FBF5F000F00700E7
:10255000D6E700000010014000140140F8B54F4CD0
:1025600000204F4E6070D4E91021D4E90E3500BF31
:1025700036F81070401C3A4436F81070401C3B444A
:1025800036F81070401C394436F81070401C3D4439
:102590003028EDDB0627B3FBF7F6B5FBF7F5B1FB0B
:1025A000F7F0B2FBF7F3C4E90E65C4E91030A26896
:1025B000964200D9A263A66BE1688E4200D2A16365
:1025C0002669B54201D82E4600E0E6636569AE4251
:1025D00000D2E563A569AB4201D81D4600E0256441
:1025E000E3699D4200D22364236A984201D80346DE
:1025F00000E06364606A834200D2606447F6FF755E
:102600006E4200953346A06B00F0B4F9A0620096CC
:10261000D4E904212B46E06B00F0ACF9E0620095B0
:10262000D4E906213346206C00F0A4F9206300961B
:10263000D4E908212B46606C00F09CF960631849CE
:10264000A36A4C39C3F3072C01F110020B60DFB20F
:1026500001F12803C2F800C01F60E56A4D60C5F3B0
:102660000726EDB256605D60246B8C60C4F3072EC4
:10267000E4B2C2F808E09C60C860C0F30721D160F2
:10268000C0B23032D860177082F801C09570D67031
:10269000147182F805E09071D171F8BD2800002016
:1026A000A80200202DE9F0415C4D10212846FEF7DC
:1026B00049FD5B4C0028207A69D000F0FE002072B2
:1026C00020212846FEF73EFD0028207A62D000F047
:1026D000FD00207240212846FEF734FD0028207AB4
:1026E0005BD000F0FB00207280212846FEF72AFD17
:1026F0000028207A54D000F0F7004A4D20722021A3
:102700002846FEF71FFD0028207A4CD000F0EF008D
:10271000207210212846FEF715FD0028207A46D0A9
:1027200000F0DF00207208212F462846FEF70AFD40
:102730000028207A3ED000F0BF00207204213A48E1
:10274000FEF700FD394D002680B32E70207A00F090
:102750007F00207201213846FEF7F4FC0028607AE1
:1027600031D000F0FE0060724FF400613048FEF797
:10277000E9FC0028607A29D000F0FD006072B5F90C
:10278000020030B3012829D0022830D12AE040F0DD
:10279000010094E740F002009BE740F00400A2E74C
:1027A00040F00800A9E740F01000B1E705E040F074
:1027B0002000B7E740F04000BFE701202870207AF2
:1027C00040F08000C5E740F00100CCE740F0020097
:1027D000D4E7607A40F00800607208E0607A40F068
:1027E000040002E0607A00F0FB0060726E80B5F9D0
:1027F000040050B101280DD0022804D1607A00F005
:10280000EF0060726E80BDE8F081607A40F02000D9
:102810006072F8E7607A40F01000F2E700000240D2
:102820009C02002000040240000C0240280000200E
:1028300000080240FEE70907090E002804DB00F14A
:10284000E02080F80014704700F00F0000F1E02055
:1028500080F8141D70470000024600204FEA000176
:1028600080EA020313F0010F4FEA500001D080F01C
:102870003100491C520889B20829F1D37047000081
:10288000F0B51B4900201B4E4870D1E91023D1E957
:102890000E4500BF36F81070401C3D4436F81070ED
:1028A000401C3C4436F81070401C3B4436F8107015
:1028B000401C3A443028EDDB0626B5FBF6F50D4802
:1028C000B4FBF6F45C38CD630768B3FBF6F33D4424
:1028D00005608C634568B2FBF6F22C4444604B649F
:1028E0008468234483600A64C1681144C160F0BDF8
:1028F00028000020A8020020FEF744FCFFF72EFC71
:10290000FFF718FBFFF700FBFFF798FBFFF7A8FAAC
:10291000FFF7C6FBFFF7E4FBFFF7FEFB1048FEF7EF
:1029200047F814210E48FDF7EDFF0E48FFF706F8B3
:102930000D4C0E4D0FE0287801280CD1FFF7A0FFB9
:1029400030220B490648FEF7B1F80120FEF7CAFA1B
:102950006069401C60616069C828ECD1FEE7000036
:10296000840000202C01002000000020290000200D
:10297000A802002010B5401A029CE41A6043511AC4
:1029800090FBF1F0184410BD30B50446AA20207029
:102990000B46002004E0195C2518401CA970C0B249
:1029A0009042F8DB11461846FDF715FE6070DD20F9
:1029B000207330BD4FF04070E1EE100A7047000602
:1029C00010160006101600000000000000000102B2
:1029D00003040607080900000000010203040000C8
:1029E000002A00080000002074000000C401000854
:1029F000742A000874000020F4080000E0010008B8
:102A000000000000000000000000000000000000C6
:102A100000000000000000000000000001000000B5
:102A20001000000000000000000000000000000096
:102A30000010000000000000001000000000000076
:102A40000010000000000000001000000000000066
:102A50000000000000000000000000000000000076
:102A60000000000000000000000000000000000066
:042A70000024F4004A
:040000050800018965
:00000001FF
